{
  "_format": "hh-sol-artifact-1",
  "contractName": "AvgToken",
  "sourceName": "contracts/AverageToken.sol",
  "abi": [
    {
      "inputs": [],
      "stateMutability": "nonpayable",
      "type": "constructor"
    },
    {
      "anonymous": false,
      "inputs": [
        {
          "indexed": true,
          "internalType": "address",
          "name": "owner",
          "type": "address"
        },
        {
          "indexed": true,
          "internalType": "address",
          "name": "approved",
          "type": "address"
        },
        {
          "indexed": true,
          "internalType": "uint256",
          "name": "tokenId",
          "type": "uint256"
        }
      ],
      "name": "Approval",
      "type": "event"
    },
    {
      "anonymous": false,
      "inputs": [
        {
          "indexed": true,
          "internalType": "address",
          "name": "owner",
          "type": "address"
        },
        {
          "indexed": true,
          "internalType": "address",
          "name": "operator",
          "type": "address"
        },
        {
          "indexed": false,
          "internalType": "bool",
          "name": "approved",
          "type": "bool"
        }
      ],
      "name": "ApprovalForAll",
      "type": "event"
    },
    {
      "anonymous": false,
      "inputs": [
        {
          "indexed": true,
          "internalType": "address",
          "name": "previousOwner",
          "type": "address"
        },
        {
          "indexed": true,
          "internalType": "address",
          "name": "newOwner",
          "type": "address"
        }
      ],
      "name": "OwnershipTransferred",
      "type": "event"
    },
    {
      "anonymous": false,
      "inputs": [
        {
          "indexed": true,
          "internalType": "address",
          "name": "from",
          "type": "address"
        },
        {
          "indexed": true,
          "internalType": "address",
          "name": "to",
          "type": "address"
        },
        {
          "indexed": true,
          "internalType": "uint256",
          "name": "tokenId",
          "type": "uint256"
        }
      ],
      "name": "Transfer",
      "type": "event"
    },
    {
      "inputs": [
        {
          "internalType": "address",
          "name": "to",
          "type": "address"
        },
        {
          "internalType": "uint256",
          "name": "tokenId",
          "type": "uint256"
        }
      ],
      "name": "approve",
      "outputs": [],
      "stateMutability": "nonpayable",
      "type": "function"
    },
    {
      "inputs": [
        {
          "internalType": "address",
          "name": "owner",
          "type": "address"
        }
      ],
      "name": "balanceOf",
      "outputs": [
        {
          "internalType": "uint256",
          "name": "",
          "type": "uint256"
        }
      ],
      "stateMutability": "view",
      "type": "function"
    },
    {
      "inputs": [
        {
          "internalType": "uint256",
          "name": "tokenId",
          "type": "uint256"
        }
      ],
      "name": "burn",
      "outputs": [],
      "stateMutability": "nonpayable",
      "type": "function"
    },
    {
      "inputs": [
        {
          "internalType": "uint256",
          "name": "tokenId",
          "type": "uint256"
        }
      ],
      "name": "getApproved",
      "outputs": [
        {
          "internalType": "address",
          "name": "",
          "type": "address"
        }
      ],
      "stateMutability": "view",
      "type": "function"
    },
    {
      "inputs": [
        {
          "internalType": "address",
          "name": "owner",
          "type": "address"
        },
        {
          "internalType": "address",
          "name": "operator",
          "type": "address"
        }
      ],
      "name": "isApprovedForAll",
      "outputs": [
        {
          "internalType": "bool",
          "name": "",
          "type": "bool"
        }
      ],
      "stateMutability": "view",
      "type": "function"
    },
    {
      "inputs": [],
      "name": "name",
      "outputs": [
        {
          "internalType": "string",
          "name": "",
          "type": "string"
        }
      ],
      "stateMutability": "view",
      "type": "function"
    },
    {
      "inputs": [],
      "name": "owner",
      "outputs": [
        {
          "internalType": "address",
          "name": "",
          "type": "address"
        }
      ],
      "stateMutability": "view",
      "type": "function"
    },
    {
      "inputs": [
        {
          "internalType": "uint256",
          "name": "tokenId",
          "type": "uint256"
        }
      ],
      "name": "ownerOf",
      "outputs": [
        {
          "internalType": "address",
          "name": "",
          "type": "address"
        }
      ],
      "stateMutability": "view",
      "type": "function"
    },
    {
      "inputs": [],
      "name": "renounceOwnership",
      "outputs": [],
      "stateMutability": "nonpayable",
      "type": "function"
    },
    {
      "inputs": [
        {
          "internalType": "address",
          "name": "to",
          "type": "address"
        },
        {
          "internalType": "string",
          "name": "uri",
          "type": "string"
        }
      ],
      "name": "safeMint",
      "outputs": [],
      "stateMutability": "nonpayable",
      "type": "function"
    },
    {
      "inputs": [
        {
          "internalType": "address",
          "name": "from",
          "type": "address"
        },
        {
          "internalType": "address",
          "name": "to",
          "type": "address"
        },
        {
          "internalType": "uint256",
          "name": "tokenId",
          "type": "uint256"
        }
      ],
      "name": "safeTransferFrom",
      "outputs": [],
      "stateMutability": "nonpayable",
      "type": "function"
    },
    {
      "inputs": [
        {
          "internalType": "address",
          "name": "from",
          "type": "address"
        },
        {
          "internalType": "address",
          "name": "to",
          "type": "address"
        },
        {
          "internalType": "uint256",
          "name": "tokenId",
          "type": "uint256"
        },
        {
          "internalType": "bytes",
          "name": "data",
          "type": "bytes"
        }
      ],
      "name": "safeTransferFrom",
      "outputs": [],
      "stateMutability": "nonpayable",
      "type": "function"
    },
    {
      "inputs": [
        {
          "internalType": "address",
          "name": "operator",
          "type": "address"
        },
        {
          "internalType": "bool",
          "name": "approved",
          "type": "bool"
        }
      ],
      "name": "setApprovalForAll",
      "outputs": [],
      "stateMutability": "nonpayable",
      "type": "function"
    },
    {
      "inputs": [
        {
          "internalType": "bytes4",
          "name": "interfaceId",
          "type": "bytes4"
        }
      ],
      "name": "supportsInterface",
      "outputs": [
        {
          "internalType": "bool",
          "name": "",
          "type": "bool"
        }
      ],
      "stateMutability": "view",
      "type": "function"
    },
    {
      "inputs": [],
      "name": "symbol",
      "outputs": [
        {
          "internalType": "string",
          "name": "",
          "type": "string"
        }
      ],
      "stateMutability": "view",
      "type": "function"
    },
    {
      "inputs": [
        {
          "internalType": "uint256",
          "name": "index",
          "type": "uint256"
        }
      ],
      "name": "tokenByIndex",
      "outputs": [
        {
          "internalType": "uint256",
          "name": "",
          "type": "uint256"
        }
      ],
      "stateMutability": "view",
      "type": "function"
    },
    {
      "inputs": [
        {
          "internalType": "address",
          "name": "owner",
          "type": "address"
        },
        {
          "internalType": "uint256",
          "name": "index",
          "type": "uint256"
        }
      ],
      "name": "tokenOfOwnerByIndex",
      "outputs": [
        {
          "internalType": "uint256",
          "name": "",
          "type": "uint256"
        }
      ],
      "stateMutability": "view",
      "type": "function"
    },
    {
      "inputs": [
        {
          "internalType": "uint256",
          "name": "tokenId",
          "type": "uint256"
        }
      ],
      "name": "tokenURI",
      "outputs": [
        {
          "internalType": "string",
          "name": "",
          "type": "string"
        }
      ],
      "stateMutability": "view",
      "type": "function"
    },
    {
      "inputs": [],
      "name": "totalSupply",
      "outputs": [
        {
          "internalType": "uint256",
          "name": "",
          "type": "uint256"
        }
      ],
      "stateMutability": "view",
      "type": "function"
    },
    {
      "inputs": [
        {
          "internalType": "address",
          "name": "from",
          "type": "address"
        },
        {
          "internalType": "address",
          "name": "to",
          "type": "address"
        },
        {
          "internalType": "uint256",
          "name": "tokenId",
          "type": "uint256"
        }
      ],
      "name": "transferFrom",
      "outputs": [],
      "stateMutability": "nonpayable",
      "type": "function"
    },
    {
      "inputs": [
        {
          "internalType": "address",
          "name": "newOwner",
          "type": "address"
        }
      ],
      "name": "transferOwnership",
      "outputs": [],
      "stateMutability": "nonpayable",
      "type": "function"
    }
  ],
  "bytecode": "0x60806040523480156200001157600080fd5b506040518060400160405280600881526020017f417667546f6b656e0000000000000000000000000000000000000000000000008152506040518060400160405280600381526020017f41544b0000000000000000000000000000000000000000000000000000000000815250816000908051906020019062000096929190620001a6565b508060019080519060200190620000af929190620001a6565b505050620000d2620000c6620000d860201b60201c565b620000e060201b60201c565b620002bb565b600033905090565b6000600b60009054906101000a900473ffffffffffffffffffffffffffffffffffffffff16905081600b60006101000a81548173ffffffffffffffffffffffffffffffffffffffff021916908373ffffffffffffffffffffffffffffffffffffffff1602179055508173ffffffffffffffffffffffffffffffffffffffff168173ffffffffffffffffffffffffffffffffffffffff167f8be0079c531659141344cd1fd0a4f28419497f9722a3daafe3b4186f6b6457e060405160405180910390a35050565b828054620001b49062000256565b90600052602060002090601f016020900481019282620001d8576000855562000224565b82601f10620001f357805160ff191683800117855562000224565b8280016001018555821562000224579182015b828111156200022357825182559160200191906001019062000206565b5b50905062000233919062000237565b5090565b5b808211156200025257600081600090555060010162000238565b5090565b600060028204905060018216806200026f57607f821691505b602082108114156200028657620002856200028c565b5b50919050565b7f4e487b7100000000000000000000000000000000000000000000000000000000600052602260045260246000fd5b613a8a80620002cb6000396000f3fe608060405234801561001057600080fd5b50600436106101375760003560e01c80636352211e116100b8578063a22cb4651161007c578063a22cb4651461034e578063b88d4fde1461036a578063c87b56dd14610386578063d204c45e146103b6578063e985e9c5146103d2578063f2fde38b1461040257610137565b80636352211e146102a857806370a08231146102d8578063715018a6146103085780638da5cb5b1461031257806395d89b411461033057610137565b806323b872dd116100ff57806323b872dd146101f45780632f745c591461021057806342842e0e1461024057806342966c681461025c5780634f6ccce71461027857610137565b806301ffc9a71461013c57806306fdde031461016c578063081812fc1461018a578063095ea7b3146101ba57806318160ddd146101d6575b600080fd5b61015660048036038101906101519190612bcb565b61041e565b6040516101639190612ff4565b60405180910390f35b610174610430565b604051610181919061300f565b60405180910390f35b6101a4600480360381019061019f9190612c1d565b6104c2565b6040516101b19190612f8d565b60405180910390f35b6101d460048036038101906101cf9190612b8f565b610508565b005b6101de610620565b6040516101eb9190613251565b60405180910390f35b61020e60048036038101906102099190612a35565b61062d565b005b61022a60048036038101906102259190612b8f565b61068d565b6040516102379190613251565b60405180910390f35b61025a60048036038101906102559190612a35565b610732565b005b61027660048036038101906102719190612c1d565b610752565b005b610292600480360381019061028d9190612c1d565b6107ae565b60405161029f9190613251565b60405180910390f35b6102c260048036038101906102bd9190612c1d565b610845565b6040516102cf9190612f8d565b60405180910390f35b6102f260048036038101906102ed91906129d0565b6108cc565b6040516102ff9190613251565b60405180910390f35b610310610984565b005b61031a610998565b6040516103279190612f8d565b60405180910390f35b6103386109c2565b604051610345919061300f565b60405180910390f35b61036860048036038101906103639190612aff565b610a54565b005b610384600480360381019061037f9190612a84565b610a6a565b005b6103a0600480360381019061039b9190612c1d565b610acc565b6040516103ad919061300f565b60405180910390f35b6103d060048036038101906103cb9190612b3b565b610ade565b005b6103ec60048036038101906103e791906129f9565b610b17565b6040516103f99190612ff4565b60405180910390f35b61041c600480360381019061041791906129d0565b610bab565b005b600061042982610c2f565b9050919050565b60606000805461043f90613476565b80601f016020809104026020016040519081016040528092919081815260200182805461046b90613476565b80156104b85780601f1061048d576101008083540402835291602001916104b8565b820191906000526020600020905b81548152906001019060200180831161049b57829003601f168201915b5050505050905090565b60006104cd82610ca9565b6004600083815260200190815260200160002060009054906101000a900473ffffffffffffffffffffffffffffffffffffffff169050919050565b600061051382610845565b90508073ffffffffffffffffffffffffffffffffffffffff168373ffffffffffffffffffffffffffffffffffffffff161415610584576040517f08c379a000000000000000000000000000000000000000000000000000000000815260040161057b906131d1565b60405180910390fd5b8073ffffffffffffffffffffffffffffffffffffffff166105a3610cf4565b73ffffffffffffffffffffffffffffffffffffffff1614806105d257506105d1816105cc610cf4565b610b17565b5b610611576040517f08c379a0000000000000000000000000000000000000000000000000000000008152600401610608906131f1565b60405180910390fd5b61061b8383610cfc565b505050565b6000600880549050905090565b61063e610638610cf4565b82610db5565b61067d576040517f08c379a000000000000000000000000000000000000000000000000000000000815260040161067490613031565b60405180910390fd5b610688838383610e4a565b505050565b6000610698836108cc565b82106106d9576040517f08c379a00000000000000000000000000000000000000000000000000000000081526004016106d090613051565b60405180910390fd5b600660008473ffffffffffffffffffffffffffffffffffffffff1673ffffffffffffffffffffffffffffffffffffffff168152602001908152602001600020600083815260200190815260200160002054905092915050565b61074d83838360405180602001604052806000815250610a6a565b505050565b61076361075d610cf4565b82610db5565b6107a2576040517f08c379a000000000000000000000000000000000000000000000000000000000815260040161079990613031565b60405180910390fd5b6107ab81611144565b50565b60006107b8610620565b82106107f9576040517f08c379a00000000000000000000000000000000000000000000000000000000081526004016107f090613211565b60405180910390fd5b60088281548110610833577f4e487b7100000000000000000000000000000000000000000000000000000000600052603260045260246000fd5b90600052602060002001549050919050565b60008061085183611150565b9050600073ffffffffffffffffffffffffffffffffffffffff168173ffffffffffffffffffffffffffffffffffffffff1614156108c3576040517f08c379a00000000000000000000000000000000000000000000000000000000081526004016108ba906131b1565b60405180910390fd5b80915050919050565b60008073ffffffffffffffffffffffffffffffffffffffff168273ffffffffffffffffffffffffffffffffffffffff16141561093d576040517f08c379a000000000000000000000000000000000000000000000000000000000815260040161093490613131565b60405180910390fd5b600360008373ffffffffffffffffffffffffffffffffffffffff1673ffffffffffffffffffffffffffffffffffffffff168152602001908152602001600020549050919050565b61098c61118d565b610996600061120b565b565b6000600b60009054906101000a900473ffffffffffffffffffffffffffffffffffffffff16905090565b6060600180546109d190613476565b80601f01602080910402602001604051908101604052809291908181526020018280546109fd90613476565b8015610a4a5780601f10610a1f57610100808354040283529160200191610a4a565b820191906000526020600020905b815481529060010190602001808311610a2d57829003601f168201915b5050505050905090565b610a66610a5f610cf4565b83836112d1565b5050565b610a7b610a75610cf4565b83610db5565b610aba576040517f08c379a0000000000000000000000000000000000000000000000000000000008152600401610ab190613031565b60405180910390fd5b610ac68484848461143e565b50505050565b6060610ad78261149a565b9050919050565b610ae661118d565b6000610af2600c6115ad565b9050610afe600c6115bb565b610b0883826115d1565b610b1281836115ef565b505050565b6000600560008473ffffffffffffffffffffffffffffffffffffffff1673ffffffffffffffffffffffffffffffffffffffff16815260200190815260200160002060008373ffffffffffffffffffffffffffffffffffffffff1673ffffffffffffffffffffffffffffffffffffffff16815260200190815260200160002060009054906101000a900460ff16905092915050565b610bb361118d565b600073ffffffffffffffffffffffffffffffffffffffff168173ffffffffffffffffffffffffffffffffffffffff161415610c23576040517f08c379a0000000000000000000000000000000000000000000000000000000008152600401610c1a90613091565b60405180910390fd5b610c2c8161120b565b50565b60007f780e9d63000000000000000000000000000000000000000000000000000000007bffffffffffffffffffffffffffffffffffffffffffffffffffffffff1916827bffffffffffffffffffffffffffffffffffffffffffffffffffffffff19161480610ca25750610ca182611663565b5b9050919050565b610cb281611745565b610cf1576040517f08c379a0000000000000000000000000000000000000000000000000000000008152600401610ce8906131b1565b60405180910390fd5b50565b600033905090565b816004600083815260200190815260200160002060006101000a81548173ffffffffffffffffffffffffffffffffffffffff021916908373ffffffffffffffffffffffffffffffffffffffff160217905550808273ffffffffffffffffffffffffffffffffffffffff16610d6f83610845565b73ffffffffffffffffffffffffffffffffffffffff167f8c5be1e5ebec7d5bd14f71427d1e84f3dd0314c0f7b2291e5b200ac8c7c3b92560405160405180910390a45050565b600080610dc183610845565b90508073ffffffffffffffffffffffffffffffffffffffff168473ffffffffffffffffffffffffffffffffffffffff161480610e035750610e028185610b17565b5b80610e4157508373ffffffffffffffffffffffffffffffffffffffff16610e29846104c2565b73ffffffffffffffffffffffffffffffffffffffff16145b91505092915050565b8273ffffffffffffffffffffffffffffffffffffffff16610e6a82610845565b73ffffffffffffffffffffffffffffffffffffffff1614610ec0576040517f08c379a0000000000000000000000000000000000000000000000000000000008152600401610eb7906130b1565b60405180910390fd5b600073ffffffffffffffffffffffffffffffffffffffff168273ffffffffffffffffffffffffffffffffffffffff161415610f30576040517f08c379a0000000000000000000000000000000000000000000000000000000008152600401610f27906130f1565b60405180910390fd5b610f3d8383836001611786565b8273ffffffffffffffffffffffffffffffffffffffff16610f5d82610845565b73ffffffffffffffffffffffffffffffffffffffff1614610fb3576040517f08c379a0000000000000000000000000000000000000000000000000000000008152600401610faa906130b1565b60405180910390fd5b6004600082815260200190815260200160002060006101000a81549073ffffffffffffffffffffffffffffffffffffffff02191690556001600360008573ffffffffffffffffffffffffffffffffffffffff1673ffffffffffffffffffffffffffffffffffffffff168152602001908152602001600020600082825403925050819055506001600360008473ffffffffffffffffffffffffffffffffffffffff1673ffffffffffffffffffffffffffffffffffffffff16815260200190815260200160002060008282540192505081905550816002600083815260200190815260200160002060006101000a81548173ffffffffffffffffffffffffffffffffffffffff021916908373ffffffffffffffffffffffffffffffffffffffff160217905550808273ffffffffffffffffffffffffffffffffffffffff168473ffffffffffffffffffffffffffffffffffffffff167fddf252ad1be2c89b69c2b068fc378daa952ba7f163c4a11628f55a4df523b3ef60405160405180910390a461113f8383836001611798565b505050565b61114d8161179e565b50565b60006002600083815260200190815260200160002060009054906101000a900473ffffffffffffffffffffffffffffffffffffffff169050919050565b611195610cf4565b73ffffffffffffffffffffffffffffffffffffffff166111b3610998565b73ffffffffffffffffffffffffffffffffffffffff1614611209576040517f08c379a000000000000000000000000000000000000000000000000000000000815260040161120090613191565b60405180910390fd5b565b6000600b60009054906101000a900473ffffffffffffffffffffffffffffffffffffffff16905081600b60006101000a81548173ffffffffffffffffffffffffffffffffffffffff021916908373ffffffffffffffffffffffffffffffffffffffff1602179055508173ffffffffffffffffffffffffffffffffffffffff168173ffffffffffffffffffffffffffffffffffffffff167f8be0079c531659141344cd1fd0a4f28419497f9722a3daafe3b4186f6b6457e060405160405180910390a35050565b8173ffffffffffffffffffffffffffffffffffffffff168373ffffffffffffffffffffffffffffffffffffffff161415611340576040517f08c379a000000000000000000000000000000000000000000000000000000000815260040161133790613111565b60405180910390fd5b80600560008573ffffffffffffffffffffffffffffffffffffffff1673ffffffffffffffffffffffffffffffffffffffff16815260200190815260200160002060008473ffffffffffffffffffffffffffffffffffffffff1673ffffffffffffffffffffffffffffffffffffffff16815260200190815260200160002060006101000a81548160ff0219169083151502179055508173ffffffffffffffffffffffffffffffffffffffff168373ffffffffffffffffffffffffffffffffffffffff167f17307eab39ab6107e8899845ad3d59bd9653f200f220920489ca2b5937696c31836040516114319190612ff4565b60405180910390a3505050565b611449848484610e4a565b611455848484846117f1565b611494576040517f08c379a000000000000000000000000000000000000000000000000000000000815260040161148b90613071565b60405180910390fd5b50505050565b60606114a582610ca9565b6000600a600084815260200190815260200160002080546114c590613476565b80601f01602080910402602001604051908101604052809291908181526020018280546114f190613476565b801561153e5780601f106115135761010080835404028352916020019161153e565b820191906000526020600020905b81548152906001019060200180831161152157829003601f168201915b50505050509050600061154f611988565b90506000815114156115655781925050506115a8565b60008251111561159a578082604051602001611582929190612f69565b604051602081830303815290604052925050506115a8565b6115a38461199f565b925050505b919050565b600081600001549050919050565b6001816000016000828254019250508190555050565b6115eb828260405180602001604052806000815250611a07565b5050565b6115f882611745565b611637576040517f08c379a000000000000000000000000000000000000000000000000000000000815260040161162e90613151565b60405180910390fd5b80600a6000848152602001908152602001600020908051906020019061165e9291906127b4565b505050565b60007f80ac58cd000000000000000000000000000000000000000000000000000000007bffffffffffffffffffffffffffffffffffffffffffffffffffffffff1916827bffffffffffffffffffffffffffffffffffffffffffffffffffffffff1916148061172e57507f5b5e139f000000000000000000000000000000000000000000000000000000007bffffffffffffffffffffffffffffffffffffffffffffffffffffffff1916827bffffffffffffffffffffffffffffffffffffffffffffffffffffffff1916145b8061173e575061173d82611a62565b5b9050919050565b60008073ffffffffffffffffffffffffffffffffffffffff1661176783611150565b73ffffffffffffffffffffffffffffffffffffffff1614159050919050565b61179284848484611acc565b50505050565b50505050565b6117a781611c2c565b6000600a600083815260200190815260200160002080546117c790613476565b9050146117ee57600a600082815260200190815260200160002060006117ed919061283a565b5b50565b60006118128473ffffffffffffffffffffffffffffffffffffffff16611d7a565b1561197b578373ffffffffffffffffffffffffffffffffffffffff1663150b7a0261183b610cf4565b8786866040518563ffffffff1660e01b815260040161185d9493929190612fa8565b602060405180830381600087803b15801561187757600080fd5b505af19250505080156118a857506040513d601f19601f820116820180604052508101906118a59190612bf4565b60015b61192b573d80600081146118d8576040519150601f19603f3d011682016040523d82523d6000602084013e6118dd565b606091505b50600081511415611923576040517f08c379a000000000000000000000000000000000000000000000000000000000815260040161191a90613071565b60405180910390fd5b805181602001fd5b63150b7a0260e01b7bffffffffffffffffffffffffffffffffffffffffffffffffffffffff1916817bffffffffffffffffffffffffffffffffffffffffffffffffffffffff191614915050611980565b600190505b949350505050565b606060405180602001604052806000815250905090565b60606119aa82610ca9565b60006119b4611988565b905060008151116119d457604051806020016040528060008152506119ff565b806119de84611d9d565b6040516020016119ef929190612f69565b6040516020818303038152906040525b915050919050565b611a118383611ec1565b611a1e60008484846117f1565b611a5d576040517f08c379a0000000000000000000000000000000000000000000000000000000008152600401611a5490613071565b60405180910390fd5b505050565b60007f01ffc9a7000000000000000000000000000000000000000000000000000000007bffffffffffffffffffffffffffffffffffffffffffffffffffffffff1916827bffffffffffffffffffffffffffffffffffffffffffffffffffffffff1916149050919050565b611ad8848484846120df565b6001811115611b1c576040517f08c379a0000000000000000000000000000000000000000000000000000000008152600401611b1390613231565b60405180910390fd5b6000829050600073ffffffffffffffffffffffffffffffffffffffff168573ffffffffffffffffffffffffffffffffffffffff161415611b6457611b5f81612205565b611ba3565b8373ffffffffffffffffffffffffffffffffffffffff168573ffffffffffffffffffffffffffffffffffffffff1614611ba257611ba1858261224e565b5b5b600073ffffffffffffffffffffffffffffffffffffffff168473ffffffffffffffffffffffffffffffffffffffff161415611be657611be1816123bb565b611c25565b8473ffffffffffffffffffffffffffffffffffffffff168473ffffffffffffffffffffffffffffffffffffffff1614611c2457611c2384826124fe565b5b5b5050505050565b6000611c3782610845565b9050611c47816000846001611786565b611c5082610845565b90506004600083815260200190815260200160002060006101000a81549073ffffffffffffffffffffffffffffffffffffffff02191690556001600360008373ffffffffffffffffffffffffffffffffffffffff1673ffffffffffffffffffffffffffffffffffffffff168152602001908152602001600020600082825403925050819055506002600083815260200190815260200160002060006101000a81549073ffffffffffffffffffffffffffffffffffffffff021916905581600073ffffffffffffffffffffffffffffffffffffffff168273ffffffffffffffffffffffffffffffffffffffff167fddf252ad1be2c89b69c2b068fc378daa952ba7f163c4a11628f55a4df523b3ef60405160405180910390a4611d76816000846001611798565b5050565b6000808273ffffffffffffffffffffffffffffffffffffffff163b119050919050565b606060006001611dac8461257d565b01905060008167ffffffffffffffff811115611df1577f4e487b7100000000000000000000000000000000000000000000000000000000600052604160045260246000fd5b6040519080825280601f01601f191660200182016040528015611e235781602001600182028036833780820191505090505b509050600082602001820190505b600115611eb6578080600190039150507f3031323334353637383961626364656600000000000000000000000000000000600a86061a8153600a8581611ea0577f4e487b7100000000000000000000000000000000000000000000000000000000600052601260045260246000fd5b0494506000851415611eb157611eb6565b611e31565b819350505050919050565b600073ffffffffffffffffffffffffffffffffffffffff168273ffffffffffffffffffffffffffffffffffffffff161415611f31576040517f08c379a0000000000000000000000000000000000000000000000000000000008152600401611f2890613171565b60405180910390fd5b611f3a81611745565b15611f7a576040517f08c379a0000000000000000000000000000000000000000000000000000000008152600401611f71906130d1565b60405180910390fd5b611f88600083836001611786565b611f9181611745565b15611fd1576040517f08c379a0000000000000000000000000000000000000000000000000000000008152600401611fc8906130d1565b60405180910390fd5b6001600360008473ffffffffffffffffffffffffffffffffffffffff1673ffffffffffffffffffffffffffffffffffffffff16815260200190815260200160002060008282540192505081905550816002600083815260200190815260200160002060006101000a81548173ffffffffffffffffffffffffffffffffffffffff021916908373ffffffffffffffffffffffffffffffffffffffff160217905550808273ffffffffffffffffffffffffffffffffffffffff16600073ffffffffffffffffffffffffffffffffffffffff167fddf252ad1be2c89b69c2b068fc378daa952ba7f163c4a11628f55a4df523b3ef60405160405180910390a46120db600083836001611798565b5050565b60018111156121ff57600073ffffffffffffffffffffffffffffffffffffffff168473ffffffffffffffffffffffffffffffffffffffff16146121735780600360008673ffffffffffffffffffffffffffffffffffffffff1673ffffffffffffffffffffffffffffffffffffffff168152602001908152602001600020600082825461216b919061338c565b925050819055505b600073ffffffffffffffffffffffffffffffffffffffff168373ffffffffffffffffffffffffffffffffffffffff16146121fe5780600360008573ffffffffffffffffffffffffffffffffffffffff1673ffffffffffffffffffffffffffffffffffffffff16815260200190815260200160002060008282546121f69190613336565b925050819055505b5b50505050565b6008805490506009600083815260200190815260200160002081905550600881908060018154018082558091505060019003906000526020600020016000909190919091505550565b6000600161225b846108cc565b612265919061338c565b905060006007600084815260200190815260200160002054905081811461234a576000600660008673ffffffffffffffffffffffffffffffffffffffff1673ffffffffffffffffffffffffffffffffffffffff168152602001908152602001600020600084815260200190815260200160002054905080600660008773ffffffffffffffffffffffffffffffffffffffff1673ffffffffffffffffffffffffffffffffffffffff168152602001908152602001600020600084815260200190815260200160002081905550816007600083815260200190815260200160002081905550505b6007600084815260200190815260200160002060009055600660008573ffffffffffffffffffffffffffffffffffffffff1673ffffffffffffffffffffffffffffffffffffffff16815260200190815260200160002060008381526020019081526020016000206000905550505050565b600060016008805490506123cf919061338c565b9050600060096000848152602001908152602001600020549050600060088381548110612425577f4e487b7100000000000000000000000000000000000000000000000000000000600052603260045260246000fd5b90600052602060002001549050806008838154811061246d577f4e487b7100000000000000000000000000000000000000000000000000000000600052603260045260246000fd5b9060005260206000200181905550816009600083815260200190815260200160002081905550600960008581526020019081526020016000206000905560088054806124e2577f4e487b7100000000000000000000000000000000000000000000000000000000600052603160045260246000fd5b6001900381819060005260206000200160009055905550505050565b6000612509836108cc565b905081600660008573ffffffffffffffffffffffffffffffffffffffff1673ffffffffffffffffffffffffffffffffffffffff168152602001908152602001600020600083815260200190815260200160002081905550806007600084815260200190815260200160002081905550505050565b600080600090507a184f03e93ff9f4daa797ed6e38ed64bf6a1f0100000000000000008310612601577a184f03e93ff9f4daa797ed6e38ed64bf6a1f01000000000000000083816125f7577f4e487b7100000000000000000000000000000000000000000000000000000000600052601260045260246000fd5b0492506040810190505b6d04ee2d6d415b85acef81000000008310612664576d04ee2d6d415b85acef8100000000838161265a577f4e487b7100000000000000000000000000000000000000000000000000000000600052601260045260246000fd5b0492506020810190505b662386f26fc1000083106126b957662386f26fc1000083816126af577f4e487b7100000000000000000000000000000000000000000000000000000000600052601260045260246000fd5b0492506010810190505b6305f5e1008310612708576305f5e10083816126fe577f4e487b7100000000000000000000000000000000000000000000000000000000600052601260045260246000fd5b0492506008810190505b6127108310612753576127108381612749577f4e487b7100000000000000000000000000000000000000000000000000000000600052601260045260246000fd5b0492506004810190505b6064831061279c5760648381612792577f4e487b7100000000000000000000000000000000000000000000000000000000600052601260045260246000fd5b0492506002810190505b600a83106127ab576001810190505b80915050919050565b8280546127c090613476565b90600052602060002090601f0160209004810192826127e25760008555612829565b82601f106127fb57805160ff1916838001178555612829565b82800160010185558215612829579182015b8281111561282857825182559160200191906001019061280d565b5b509050612836919061287a565b5090565b50805461284690613476565b6000825580601f106128585750612877565b601f016020900490600052602060002090810190612876919061287a565b5b50565b5b8082111561289357600081600090555060010161287b565b5090565b60006128aa6128a584613291565b61326c565b9050828152602081018484840111156128c257600080fd5b6128cd848285613434565b509392505050565b60006128e86128e3846132c2565b61326c565b90508281526020810184848401111561290057600080fd5b61290b848285613434565b509392505050565b600081359050612922816139f8565b92915050565b60008135905061293781613a0f565b92915050565b60008135905061294c81613a26565b92915050565b60008151905061296181613a26565b92915050565b600082601f83011261297857600080fd5b8135612988848260208601612897565b91505092915050565b600082601f8301126129a257600080fd5b81356129b28482602086016128d5565b91505092915050565b6000813590506129ca81613a3d565b92915050565b6000602082840312156129e257600080fd5b60006129f084828501612913565b91505092915050565b60008060408385031215612a0c57600080fd5b6000612a1a85828601612913565b9250506020612a2b85828601612913565b9150509250929050565b600080600060608486031215612a4a57600080fd5b6000612a5886828701612913565b9350506020612a6986828701612913565b9250506040612a7a868287016129bb565b9150509250925092565b60008060008060808587031215612a9a57600080fd5b6000612aa887828801612913565b9450506020612ab987828801612913565b9350506040612aca878288016129bb565b925050606085013567ffffffffffffffff811115612ae757600080fd5b612af387828801612967565b91505092959194509250565b60008060408385031215612b1257600080fd5b6000612b2085828601612913565b9250506020612b3185828601612928565b9150509250929050565b60008060408385031215612b4e57600080fd5b6000612b5c85828601612913565b925050602083013567ffffffffffffffff811115612b7957600080fd5b612b8585828601612991565b9150509250929050565b60008060408385031215612ba257600080fd5b6000612bb085828601612913565b9250506020612bc1858286016129bb565b9150509250929050565b600060208284031215612bdd57600080fd5b6000612beb8482850161293d565b91505092915050565b600060208284031215612c0657600080fd5b6000612c1484828501612952565b91505092915050565b600060208284031215612c2f57600080fd5b6000612c3d848285016129bb565b91505092915050565b612c4f816133c0565b82525050565b612c5e816133d2565b82525050565b6000612c6f826132f3565b612c798185613309565b9350612c89818560208601613443565b612c9281613566565b840191505092915050565b6000612ca8826132fe565b612cb2818561331a565b9350612cc2818560208601613443565b612ccb81613566565b840191505092915050565b6000612ce1826132fe565b612ceb818561332b565b9350612cfb818560208601613443565b80840191505092915050565b6000612d14602d8361331a565b9150612d1f82613577565b604082019050919050565b6000612d37602b8361331a565b9150612d42826135c6565b604082019050919050565b6000612d5a60328361331a565b9150612d6582613615565b604082019050919050565b6000612d7d60268361331a565b9150612d8882613664565b604082019050919050565b6000612da060258361331a565b9150612dab826136b3565b604082019050919050565b6000612dc3601c8361331a565b9150612dce82613702565b602082019050919050565b6000612de660248361331a565b9150612df18261372b565b604082019050919050565b6000612e0960198361331a565b9150612e148261377a565b602082019050919050565b6000612e2c60298361331a565b9150612e37826137a3565b604082019050919050565b6000612e4f602e8361331a565b9150612e5a826137f2565b604082019050919050565b6000612e7260208361331a565b9150612e7d82613841565b602082019050919050565b6000612e9560208361331a565b9150612ea08261386a565b602082019050919050565b6000612eb860188361331a565b9150612ec382613893565b602082019050919050565b6000612edb60218361331a565b9150612ee6826138bc565b604082019050919050565b6000612efe603d8361331a565b9150612f098261390b565b604082019050919050565b6000612f21602c8361331a565b9150612f2c8261395a565b604082019050919050565b6000612f4460358361331a565b9150612f4f826139a9565b604082019050919050565b612f638161342a565b82525050565b6000612f758285612cd6565b9150612f818284612cd6565b91508190509392505050565b6000602082019050612fa26000830184612c46565b92915050565b6000608082019050612fbd6000830187612c46565b612fca6020830186612c46565b612fd76040830185612f5a565b8181036060830152612fe98184612c64565b905095945050505050565b60006020820190506130096000830184612c55565b92915050565b600060208201905081810360008301526130298184612c9d565b905092915050565b6000602082019050818103600083015261304a81612d07565b9050919050565b6000602082019050818103600083015261306a81612d2a565b9050919050565b6000602082019050818103600083015261308a81612d4d565b9050919050565b600060208201905081810360008301526130aa81612d70565b9050919050565b600060208201905081810360008301526130ca81612d93565b9050919050565b600060208201905081810360008301526130ea81612db6565b9050919050565b6000602082019050818103600083015261310a81612dd9565b9050919050565b6000602082019050818103600083015261312a81612dfc565b9050919050565b6000602082019050818103600083015261314a81612e1f565b9050919050565b6000602082019050818103600083015261316a81612e42565b9050919050565b6000602082019050818103600083015261318a81612e65565b9050919050565b600060208201905081810360008301526131aa81612e88565b9050919050565b600060208201905081810360008301526131ca81612eab565b9050919050565b600060208201905081810360008301526131ea81612ece565b9050919050565b6000602082019050818103600083015261320a81612ef1565b9050919050565b6000602082019050818103600083015261322a81612f14565b9050919050565b6000602082019050818103600083015261324a81612f37565b9050919050565b60006020820190506132666000830184612f5a565b92915050565b6000613276613287565b905061328282826134a8565b919050565b6000604051905090565b600067ffffffffffffffff8211156132ac576132ab613537565b5b6132b582613566565b9050602081019050919050565b600067ffffffffffffffff8211156132dd576132dc613537565b5b6132e682613566565b9050602081019050919050565b600081519050919050565b600081519050919050565b600082825260208201905092915050565b600082825260208201905092915050565b600081905092915050565b60006133418261342a565b915061334c8361342a565b9250827fffffffffffffffffffffffffffffffffffffffffffffffffffffffffffffffff03821115613381576133806134d9565b5b828201905092915050565b60006133978261342a565b91506133a28361342a565b9250828210156133b5576133b46134d9565b5b828203905092915050565b60006133cb8261340a565b9050919050565b60008115159050919050565b60007fffffffff0000000000000000000000000000000000000000000000000000000082169050919050565b600073ffffffffffffffffffffffffffffffffffffffff82169050919050565b6000819050919050565b82818337600083830152505050565b60005b83811015613461578082015181840152602081019050613446565b83811115613470576000848401525b50505050565b6000600282049050600182168061348e57607f821691505b602082108114156134a2576134a1613508565b5b50919050565b6134b182613566565b810181811067ffffffffffffffff821117156134d0576134cf613537565b5b80604052505050565b7f4e487b7100000000000000000000000000000000000000000000000000000000600052601160045260246000fd5b7f4e487b7100000000000000000000000000000000000000000000000000000000600052602260045260246000fd5b7f4e487b7100000000000000000000000000000000000000000000000000000000600052604160045260246000fd5b6000601f19601f8301169050919050565b7f4552433732313a2063616c6c6572206973206e6f7420746f6b656e206f776e6560008201527f72206f7220617070726f76656400000000000000000000000000000000000000602082015250565b7f455243373231456e756d657261626c653a206f776e657220696e646578206f7560008201527f74206f6620626f756e6473000000000000000000000000000000000000000000602082015250565b7f4552433732313a207472616e7366657220746f206e6f6e20455243373231526560008201527f63656976657220696d706c656d656e7465720000000000000000000000000000602082015250565b7f4f776e61626c653a206e6577206f776e657220697320746865207a65726f206160008201527f6464726573730000000000000000000000000000000000000000000000000000602082015250565b7f4552433732313a207472616e736665722066726f6d20696e636f72726563742060008201527f6f776e6572000000000000000000000000000000000000000000000000000000602082015250565b7f4552433732313a20746f6b656e20616c7265616479206d696e74656400000000600082015250565b7f4552433732313a207472616e7366657220746f20746865207a65726f2061646460008201527f7265737300000000000000000000000000000000000000000000000000000000602082015250565b7f4552433732313a20617070726f766520746f2063616c6c657200000000000000600082015250565b7f4552433732313a2061646472657373207a65726f206973206e6f74206120766160008201527f6c6964206f776e65720000000000000000000000000000000000000000000000602082015250565b7f45524337323155524953746f726167653a2055524920736574206f66206e6f6e60008201527f6578697374656e7420746f6b656e000000000000000000000000000000000000602082015250565b7f4552433732313a206d696e7420746f20746865207a65726f2061646472657373600082015250565b7f4f776e61626c653a2063616c6c6572206973206e6f7420746865206f776e6572600082015250565b7f4552433732313a20696e76616c696420746f6b656e2049440000000000000000600082015250565b7f4552433732313a20617070726f76616c20746f2063757272656e74206f776e6560008201527f7200000000000000000000000000000000000000000000000000000000000000602082015250565b7f4552433732313a20617070726f76652063616c6c6572206973206e6f7420746f60008201527f6b656e206f776e6572206f7220617070726f76656420666f7220616c6c000000602082015250565b7f455243373231456e756d657261626c653a20676c6f62616c20696e646578206f60008201527f7574206f6620626f756e64730000000000000000000000000000000000000000602082015250565b7f455243373231456e756d657261626c653a20636f6e736563757469766520747260008201527f616e7366657273206e6f7420737570706f727465640000000000000000000000602082015250565b613a01816133c0565b8114613a0c57600080fd5b50565b613a18816133d2565b8114613a2357600080fd5b50565b613a2f816133de565b8114613a3a57600080fd5b50565b613a468161342a565b8114613a5157600080fd5b5056fea264697066735822122018f4b2a13b6bd1cc88b93948fa195c32989fb6574840e354668b8c186e63bef264736f6c63430008010033",
  "linkReferences": {},
  "deployedLinkReferences": {}
}